S01C00005461736B335F4775657373696E6747616D6556322E737265639C
S11300000C942A000C9447000C9447000C9447006D
S11300100C9447000C9447000C9447000C94470040
S11300200C9447000C94B0000C9447000C944700C7
S11300300C9447000C9447000C9447000C94470020
S11300400C9447000C9447000C9447000C94470010
S11300500C94470011241FBECFE5D8E0DEBFCDBF0E
S113006010E0A0E6B0E0E0E6FCE002C005900D92EE
S1130070A43CB107D9F720E0A4ECB0E001C01D9284
S1130080A53CB207E1F70E9484020C942E060C945E
S1130090000041110DC0FB01308181E090E002C0FD
S11300A0880F991F2A95E2F780958323808308950A
S11300B0FB01308181E090E002C0880F991F2A95EE
S11300C0E2F7832B808308950F931F93CF93DF93DD
S11300D0009709F440C08C0185E083BFB80180E03B
S11300E090E00E9406042CE53FE842E853E40E94B5
S11300F05E030E94D003EB01C80165E071E00E9439
S1130100EC04BC01990F880B990B0E9408049B0115
S1130110AC016CE57FE882E893E40E94F1022FE6EB
S113012032E143E85FE30E945E030E94D00380E073
S113013090E007C012BE08B600FEFDCF21E028BF44
S113014001968C179D07B4F362BF08B600FEFDCF7D
S113015081E088BF13BEDF91CF911F910F91089565
S11301601F920F920FB60F9211248F9381E0809308
S1130170C400F8948F910F900FBE0F901F901895A4
S1130180BC01990F880B990B0E9408042FE632E1F9
S113019043E85FE30E945E039B01AC0160E07FEFF4
S11301A08FE797E40E94F1020E9443040E94D70360
S11301B07DBD6CBD1FBC85E08EBD84E089BF789495
S11301C0089595B39E7F95BB82BB85B3846085BB40
S11301D081E090E00E94640085B38B7F85BB81E061
S11301E090E00E9464000895813039F4862F90E0F5
S11301F080589F4F0E94E1000895823031F4862F89
S113020090E080549F4F0E94E100089595B391605F
S113021095BB82BB85B3846085BB81E090E00E947E
S1130220640085B38B7F85BB81E090E00E9464000D
S113023008950F931F93CF93DF938C01C0E0D0E018
S113024004C090E00E9406012196F801EC0FFD1F06
S113025080818111F6CFDF91CF911F910F91089585
S113026080EF84BB87E084BB85B38E7F85BB85B379
S11302708D7F85BB85B38B7F85BB88E390E00E942F
S1130280E1008CE090E00E94E10081E090E00E94B7
S1130290E10086E090E00E94E1000895242F40E010
S11302A00E944900089580E18BBBC89936C0C99962
S11302B036C0CA9936C0CB9936C081E090E00E941E
S11302C0640080E28BBBC89930C0C99930C0CA9918
S11302D030C0CB9930C081E090E00E94640080E49B
S11302E08BBBC8992AC0C9992AC0CA992AC0CB997C
S11302F02AC081E090E00E94640080E88BBBC8992A
S113030024C0C99924C0CA9924C0CB9924C081E0CF
S113031090E00E9464008EE6089587E3089588E3E0
S1130320089589E3089589E6089584E3089585E3AB
S1130330089586E3089589E6089581E3089582E3A4
S1130340089583E3089589E6089589E6089580E38E
S113035008958DE3089589E608950E94300124E00C
S113036041E06AE370E08BE390E00E94490025E0FD
S113037041E06AE370E08BE390E00E94490026E0EC
S113038041E06AE370E08BE390E00E94490027E0DB
S113039041E06AE370E08BE390E00E94490040E0B2
S11303A06AE370E08BE390E00E944E0141E06AE36F
S11303B070E08BE390E00E944E0142E06AE370E05B
S11303C08BE390E00E944E0143E06AE370E08BE32C
S11303D090E00E944E01089560E081E00E94F400E4
S11303E084E690E00E94190160E082E00E94F4003B
S11303F081E790E00E9419010895CF93DF93EC0107
S113040081E090E00E94E10064E081E00E94F40059
S11304108DE790E00E94190160E082E00E94F40000
S113042085E890E00E941901CE010E94190180ED37
S113043097E00E94640081E090E00E94E100DF9177
S1130440CF910895CF93DF93EC0181E090E00E9477
S1130450E10064E081E00E94F4008EE890E00E94F4
S1130460190160E082E00E94F40085E890E00E94B7
S11304701901CE010E94190180ED97E00E946400E9
S113048081E090E00E94E100DF91CF91089581E046
S113049090E00E94E10060E081E00E94F40087E9BE
S11304A090E00E94190160E082E00E94F40087EA73
S11304B090E00E94190180ED97E00E94640081E0C1
S11304C090E00E94E100089581E090E00E94E10044
S11304D060E081E00E94F40085EB90E00E94190145
S11304E080ED97E00E94640081E090E00E94E100CA
S11304F0089590E00E9465050E9460056EE070E03A
S11305000E9400058F5F0895CF93DF93CDB7DEB7C8
S113051027970FB6F894DEBF0FBECDBF0E94AD0182
S1130520FE01319685E0DF011D928A95E9F710E01E
S1130530F12C8091C400811123C00E945301082F23
S11305400E94EC01093619F40E94640248C0BEE618
S11305500B1709F444C0E1E0F0E0EC0FFD1FEF0DD0
S1130560F11D0083CE0101960E94190188EC90E0F0
S11305700E946400F39488EE93E00E94C0002FC0B0
S1130580812F0E947902082F4AE0BE016A5F7F4FE3
S113059090E00E948E05CE0101960E9470059FEFA7
S11305A0980F9F3018F00E9447020BC0081305C033
S11305B0CE0106960E94FD0104C0CE0106960E945B
S11305C0220284EF91E00E9464001092C400FE01B4
S11305D0319685E0DF011D928A95E9F7F12C1F5FC2
S11305E0A8CF5058BB27AA270E9409030C949A0449
S11305F00E948C0438F00E94930420F039F49F3F49
S113060019F426F40C9489040EF4E095E7FB0C9499
S11306105A04E92F0E94AB0458F3BA176207730710
S11306208407950720F079F4A6F50C94E5040EF4FC
S1130630E0950B2EBA2FA02D0B01B90190010C01EE
S1130640CA01A0011124FF27591B99F0593F50F406
S1130650503E68F11A16F040A22F232F342F44275E
S1130660585FF3CF469537952795A795F040539556
S1130670C9F77EF41F16BA0B620B730B840BBAF026
S11306809150A1F0FF0FBB1F661F771F881FC2F791
S11306900EC0BA0F621F731F841F48F487957795A5
S11306A06795B795F7959E3F08F0B0CF9395880F5F
S11306B008F09927EE0F9795879508950E94720385
S11306C00C949A040E94930458F00E948C0440F005
S11306D029F45F3F29F00C945A0451110C94E60458
S11306E00C9489040E94AB0468F39923B1F3552355
S11306F091F3951B550BBB27AA2762177307840731
S113070038F09F5F5F4F220F331F441FAA1FA9F3C6
S113071035D00E2E3AF0E0E832D091505040E695B4
S1130720001CCAF72BD0FE2F29D0660F771F881F15
S1130730BB1F261737074807AB07B0E809F0BB0B08
S1130740802DBF01FF2793585F4F3AF09E3F51051C
S113075078F00C945A040C94E6045F3FE4F3983E5A
S1130760D4F3869577956795B795F7959F5FC9F705
S1130770880F911D9695879597F90895E1E0660F86
S1130780771F881FBB1F621773078407BA0720F0FF
S1130790621B730B840BBA0BEE1F88F7E095089568
S11307A00E94D7036894B1110C94E60408950E9442
S11307B0B30488F09F5798F0B92F9927B751B0F038
S11307C0E1F0660F771F881F991F1AF0BA95C9F7D1
S11307D014C0B13091F00E94E504B1E008950C9486
S11307E0E504672F782F8827B85F39F0B93FCCF339
S11307F0869577956795B395D9F73EF4909580954E
S1130800709561957F4F8F4F9F4F0895E89409C06D
S113081097FB3EF490958095709561957F4F8F4F2F
S11308209F4F9923A9F0F92F96E9BB279395F69545
S1130830879577956795B795F111F8CFFAF4BB0FC3
S113084011F460FF1BC06F5F7F4F8F4F9F4F16C027
S1130850882311F096E911C0772321F09EE8872FB1
S1130860762F05C0662371F096E8862F70E060E06D
S11308702AF09A95660F771F881FDAF7880F9695E6
S1130880879597F908950E94CD0490F09F3748F416
S1130890911116F00C94E60460E070E080E89FEBA0
S11308A0089526F41B16611D711D811D0C946004AE
S11308B00C947B0497F99F6780E870E060E00895EA
S11308C0882371F4772321F09850872B762F07C063
S11308D0662311F499270DC09051862B70E060E0D7
S11308E02AF09A95660F771F881FDAF7880F969576
S11308F0879597F908959F3F31F0915020F487959B
S113090077956795B795880F911D9695879597F973
S113091008959FEF80EC089500240A941616170694
S113092018060906089500240A94121613061406DC
S113093005060895092E0394000C11F4882352F03F
S1130940BB0F40F4BF2B11F460FF04C06F5F7F4FF7
S11309508F4F9F4F089557FD9058440F551F59F0DE
S11309605F3F71F04795880F97FB991F61F09F3F98
S113097079F087950895121613061406551FF2CFC1
S11309804695F1DF08C0161617061806991FF1CF11
S1130990869571056105089408950E94B304A0F03A
S11309A0BEE7B91788F4BB279F3860F41616B11D4B
S11309B0672F782F8827985FF7CF86957795679567
S11309C0B11D93959639C8F30895E894BB2766271B
S11309D07727CB0197F90895AA1BBB1B51E107C0E8
S11309E0AA1FBB1FA617B70710F0A61BB70B881FBB
S11309F0991F5A95A9F780959095BC01CD0108954A
S1130A0097FB072E16F4009407D077FD09D00E94B7
S1130A10EC0407FC05D03EF4909581959F4F089512
S1130A20709561957F4F08958F929F92AF92BF9278
S1130A30CF92DF92EF92FF92CF93DF93EC01688124
S1130A4079818A819B81611571058105910521F464
S1130A5064E279ED8BE597E02DE133EF41E050E07E
S1130A600E94CB0549015A019B01AC01A7EAB1E4FC
S1130A700E94EA056B017C01ACEEB4EFA501940180
S1130A800E94F805DC01CB018C0D9D1DAE1DBF1D20
S1130A90B7FF03C00197A109B04888839983AA834B
S1130AA0BB839F77DF91CF91FF90EF90DF90CF9042
S1130AB0BF90AF909F908F9008950E941405089561
S1130AC080E690E00E9414050895A0E0B0E08093D1
S1130AD0600090936100A0936200B0936300089556
S1130AE0FC0188279927E89421912032E9F32930E1
S1130AF010F02E30C8F32B3241F02D3239F46894C3
S1130B0004C00E949905820F911D219120532A301F
S1130B10C0F31EF4909581959F4F0895BB274A30EA
S1130B2031F4992322F4BDE2909581959F4F0C9462
S1130B30A2057AE0979F902D879F802D910D112417
S1130B400895BB27FB015527AA27880F991FAA1FC1
S1130B50A41710F0A41B83955051B9F7A05DAA33D4
S1130B6008F0A95DA193009779F7B111B19311929F
S1130B70CB010C94BB05DC01FC01672F7191772339
S1130B80E1F7329704C07C916D9370836291AE1744
S1130B90BF07C8F30895052E97FB1EF400940E9426
S1130BA0E20557FD07D00E94FD0507FC03D04EF473
S1130BB00C94E20550954095309521953F4F4F4F49
S1130BC05F4F089590958095709561957F4F8F4FF5
S1130BD09F4F08950E941F06A59F900DB49F900DEE
S1130BE0A49F800D911D11240895B7FF0C94EA056C
S1130BF00E94EA05821B930B0895A1E21A2EAA1BF8
S1130C00BB1BFD010DC0AA1FBB1FEE1FFF1FA217B8
S1130C10B307E407F50720F0A21BB30BE40BF50BB5
S1130C20661F771F881F991F1A9469F7609570953E
S1130C30809590959B01AC01BD01CF010895A29FC1
S1130C40B001B39FC001A39F700D811D1124911D9C
S1130C50B29F700D811D1124911D0895F894FFCF4A
S1130C6001000000506C65617365204775657373FE
S1130C7000616E20496E74656765723A00594F557C
S1130C8020574F4E00697420776173203A00594F02
S1130C9055204C4F5354005468652056616C696468
S1130CA02052616E67650066726F6D2031202D3EA3
S1130CB02031353A00496E76616C696420496E7062
S1070CC07574000043
S9030000FC
