S01100005461736B365F44494F2E737265630F
S11300000C942A000C9434000C9434000C943400A6
S11300100C9434000C9434000C9434000C9434008C
S11300200C9434000C9434000C9434000C9434007C
S11300300C9434000C9434000C9434000C9434006C
S11300400C9434000C9434000C9434000C9434005C
S11300500C94340011241FBECFE5D8E0DEBFCDBF21
S11300600E9469000C9479000C94000061E070E037
S113007084E390E00E944800089583E390E00E94A6
S11300804B0021E0019709F020E0822F90E00895D1
S1130090FC0160830895FC01808190E00895FC01D7
S11300A06083089561E070E08AE390E00E94480074
S11300B0089561E070E0892B11F460E070E08BE357
S11300C090E00E944F0008950E9452000E94360062
S11300D008950E9464000E943D00882329F081E075
S11300E090E00E945900F7CF80E090E00E94590010
S10900F0F2CFF894FFCFEB
S9030000FC
