S01B00005461736B2035205553415254204472697665722E73726563E6
S11300000C942A000C943F000C943F000C943F0085
S11300100C943F000C943F000C943F000C943F0060
S11300200C943F000C943F000C943F000C943F0050
S11300300C943F000C943F000C943F000C943F0040
S11300400C943F000C943F000C943F000C943F0030
S11300500C943F0011241FBECFE5D8E0DEBFCDBF16
S113006010E0A0E6B0E0E4EDF0E002C005900D92EF
S1130070A636B107D9F70E945F000C9468000C946F
S1130080000090BD89B988E18AB98EE880BD0895E1
S11300905D9BFECF8CB908950F931F93CF938C0172
S11300A0C0E003C00E944800CF5FF801EC0FF11DCF
S11300B080818111F7CFCF911F910F91089587E629
S11300C090E00E94410080E690E00E944C00FBCF4B
S10700D0F894FFCFCE
S10900D44455434B0000FB
S9030000FC
