S01B00005461736B203720535049205F204D41535445522E73726563A8
S11300000C942A000C9434000C9434000C943400A6
S11300100C9434000C9434000C9434000C9434008C
S11300200C9434000C9434000C9434000C9434007C
S11300300C9434000C9434000C9434000C9434006C
S11300400C9434000C9434000C9434000C9434005C
S11300500C94340011241FBECFE5D8E0DEBFCDBF21
S11300600E94AC000C94D1000C9400000E94B200D9
S11300700895683008F06FC0843008F06CC0813097
S113008001F130F08230B1F1833009F44CC00895AD
S1130090413059F42AB381E090E002C0880F991FDF
S11300A06A95E2F7822B8ABB08952AB381E090E037
S11300B002C0880F991F6A95E2F7809582238ABB54
S11300C00895413059F427B381E090E002C0880FCD
S11300D0991F6A95E2F7822B87BB089527B381E0C5
S11300E090E002C0880F991F6A95E2F780958223F9
S11300F087BB0895413059F424B381E090E002C0F5
S1130100880F991F6A95E2F7822B84BB089524B364
S113011081E090E002C0880F991F6A95E2F780950C
S1130120822384BB0895413059F421B381E090E0E7
S113013002C0880F991F6A95E2F7822B81BB08954C
S113014021B381E090E002C0880F991F6A95E2F71D
S11301508095822381BB08950E94360082E40E9428
S1130160CC00FFCF41E064E081E00E94390041E02F
S113017065E081E00E94390040E066E081E00E9491
S1130180390041E067E081E00E94390080E58DB9E3
S11301908EB18E7F8EB908958FB9779BFECF8FB1C4
S10901A00895F894FFCF5E
S9030000FC
