S01B00005461736B203720535049205F204D41535445522E73726563A8
S11300000C942A000C943F000C943F000C943F0085
S11300100C943F000C943F000C943F000C943F0060
S11300200C943F000C943F000C943F000C943F0050
S11300300C943F000C943F000C943F000C943F0040
S11300400C943F000C943F000C943F000C943F0030
S11300500C943F0011241FBECFE5D8E0DEBFCDBF16
S113006010E0A0E6B0E0E4E0F2E002C005900D92FA
S1130070AA36B107D9F70E944A000C9400010C94E7
S1130080000060E875E280E090E00E9484000E9435
S11300906C000895CF93DF93CDB7DEB7C456D10972
S11300A00FB6F894DEBF0FBECDBF0E94410080E6BC
S11300B090E00E94B000CE0101960E94BD00CE01E6
S11300C001960E947700CE0101960E94B00087E657
S11300D090E00E94B000EBCF87B3806B87BB8DB1FB
S11300E080658DB908958FB9779BFECF0895CF931E
S11300F0DF93EC0103C00E94730021968881811173
S1130100FACFDF91CF9108952BB122602BB92AB198
S113011028612AB920B5266820BDDC01CB01880FEF
S1130120991FAA1FBB1F880F991FAA1FBB1F9C01E1
S1130130AD01220F331F441F551F60E472E48FE0AA
S113014090E00E94DE002150310930BD29B90895A4
S11301505D9BFECF8CB908955F9BFECF8CB1089553
S1130160CF93DF93EC0103C00E94A80021968881FD
S11301708111FACFDF91CF910895EF92FF920F93FF
S11301801F93CF938C010E94AC00F8018083C0E0E0
S113019008C0CF5F7801EC0EF11C0E94AC00F7019F
S11301A08083F801EC0FF11D8081833291F7108276
S11301B0CF911F910F91FF90EF900895A1E21A2E15
S11301C0AA1BBB1BFD010DC0AA1FBB1FEE1FFF1FF7
S11301D0A217B307E407F50720F0A21BB30BE40B47
S11301E0F50B661F771F881F991F1A9469F760958E
S11301F07095809590959B01AC01BD01CF01089548
S1070200F894FFCF9C
S10D02044D41535445523A0D0000D9
S9030000FC
