S01800005461736B2037205350495F534C4156452E737265633C
S11300000C942A000C9434000C9434000C943400A6
S11300100C9434000C9434000C9434000C9434008C
S11300200C9434000C9434000C9434000C9434007C
S11300300C9434000C9434000C9434000C9434006C
S11300400C9434000C9434000C9434000C9434005C
S11300500C94340011241FBECFE5D8E0DEBFCDBF21
S11300600E94D8000C9401010C9400000E94E2004C
S11300706FEF82E00E94B40060E082E00E94C6005C
S11300800895683008F06FC0843008F06CC0813087
S113009001F130F08230B1F1833009F44CC008959D
S11300A0413059F42AB381E090E002C0880F991FCF
S11300B06A95E2F7822B8ABB08952AB381E090E027
S11300C002C0880F991F6A95E2F7809582238ABB44
S11300D00895413059F427B381E090E002C0880FBD
S11300E0991F6A95E2F7822B87BB089527B381E0B5
S11300F090E002C0880F991F6A95E2F780958223E9
S113010087BB0895413059F424B381E090E002C0E4
S1130110880F991F6A95E2F7822B84BB089524B354
S113012081E090E002C0880F991F6A95E2F78095FC
S1130130822384BB0895413059F421B381E090E0D7
S113014002C0880F991F6A95E2F7822B81BB08953C
S113015021B381E090E002C0880F991F6A95E2F70D
S11301608095822381BB0895843078F4813041F0F6
S113017028F0823039F0833039F008956ABB08954D
S113018067BB089564BB089561BB0895843078F417
S1130190813041F028F0823039F0833039F008950D
S11301A06BBB089568BB089565BB089562BB089551
S11301B00E9436008FEF0E94FC00682F82E00E94AC
S11301C0C600FFCF40E064E081E00E94410040E0CF
S11301D065E081E00E94410041E066E081E00E9428
S11301E0410040E067E081E00E94410080E48DB975
S11301F08EB18E7F8EB908958FB9779BFECF8FB164
S10902000895F894FFCFFD
S9030000FC
