:100000000C942A000C943F000C943F000C943F0089
:100010000C943F000C943F000C943F000C943F0064
:100020000C943F000C943F000C943F000C943F0054
:100030000C943F000C943F000C943F000C943F0044
:100040000C943F000C943F000C943F000C943F0034
:100050000C943F0011241FBECFE5D8E0DEBFCDBF1A
:1000600010E0A0E6B0E0E8EDF1E002C005900D92EE
:10007000A836B107D9F70E944A000C94EA000C9404
:10008000000060E875E280E090E00E9493000E942A
:1000900067000895CF93DF93CDB7DEB72A970FB6E9
:1000A000F894DEBF0FBECDBF0E94410080E690E015
:1000B0000E94BB00CE0101960E947200CE01019603
:1000C0000E94BB0086E690E00E94BB00EFCF87B3A2
:1000D000806487BB8DB180648DB90895779BFECF16
:1000E0008FB10895EF92FF920F931F93CF938C01DE
:1000F0000E946E00F8018083C0E008C0CF5F7801E5
:10010000EC0EF11C0E946E00F7018083F801EC0FE9
:10011000F11D8081833291F71082CF911F910F9151
:10012000FF90EF9008952BB122602BB92AB128617E
:100130002AB920B5266820BDDC01CB01880F991FA4
:10014000AA1FBB1F880F991FAA1FBB1F9C01AD01CF
:10015000220F331F441F551F60E472E48FE090E0CC
:100160000E94C8002150310930BD29B908955D9B16
:10017000FECF8CB90895CF93DF93EC0103C00E94AA
:10018000B700219688818111FACFDF91CF91089530
:10019000A1E21A2EAA1BBB1BFD010DC0AA1FBB1F8B
:1001A000EE1FFF1FA217B307E407F50720F0A21BFD
:1001B000B30BE40BF50B661F771F881F991F1A946A
:1001C00069F760957095809590959B01AC01BD0194
:0801D000CF010895F894FFCF60
:0801D800534C4156453A0D005D
:00000001FF
