:100000000C942A000C9447000C9447000C94470071
:100010000C9447000C9447000C9447000C947C040B
:100020000C94A5040C94CE040C94F5040C941E05B9
:100030000C9447000C9447000C9447000C94470024
:100040000C9447000C9447000C9447000C94470014
:100050000C94470011241FBECFE5D8E0DEBFCDBF12
:1000600010E0A0E6B0E0E2E7FEE002C005900D92ED
:10007000A83CB107D9F720E0A8ECB0E001C01D9280
:10008000A03DB207E1F70E94EF020C9437070C94F1
:10009000000081E00E94E90180E790E00E94940264
:1000A00061E081E00E94BF028FE790E00E9494022D
:1000B00008950E9435020E9422010E9449040E9474
:1000C00008010E94CE020E944900089581E00E942A
:1000D000E90161E080E00E94BF028CE890E00E94AC
:1000E00094026EE080E00E94BF028091C80090916F
:1000F000C9000E94A10261E081E00E94BF028AE97A
:1001000090E00E9494020E941C018AE50E94130163
:1001100041E060E083E00E94960340E061E083E01C
:100120000E9496032FEF89E698E12150804090408D
:10013000E1F700C000000E944900089581E00E949C
:10014000E90161E080E00E94BF028CE890E00E943B
:1001500094026EE080E00E94BF028091C8009091FE
:10016000C9000E94A10261E081E00E94BF0288EA0A
:1001700090E00E9494020E941F0140E060E083E052
:100180000E94960340E061E083E00E9496032FEF17
:1001900089E698E1215080409040E1F700C00000DE
:1001A0000E94490008958CEC90E00E94D106809353
:1001B000CF0080E00E94D1029093C9008093C800D4
:1001C0002091CF0030E02817390718F40E9466000C
:1001D00008950E949E000895CF93DF93D0E00FC052
:1001E0000E947301C82F8F3F51F08D3351F0ED2FD6
:1001F000F0E0E453FF4F80830E944802DF5FD3307A
:1002000078F3CD3311F40E94D300DF91CF9108959C
:1002100041E060E083E00E94110341E061E083E09F
:100220000E9411030895682F70E080E090E00E9422
:10023000C7050E94640408950E94740408950E94F2
:100240007804089541E060E082E00E94110341E0FB
:1002500061E082E00E94110341E062E082E00E94DE
:10026000110341E063E082E00E94110340E064E09A
:1002700082E00E94110340E065E082E00E941103E9
:1002800040E066E082E00E94110340E067E082E027
:100290000E94110341E060E082E00E94960341E089
:1002A00061E082E00E94960341E062E082E00E9409
:1002B000960341E063E082E00E94960341E064E03F
:1002C00082E00E94960341E065E082E00E9496038E
:1002D00041E066E082E00E94960341E067E082E050
:1002E0000E94960308956F927F928F929F92AF9291
:1002F000BF92CF92DF92EF92FF920F931F93CF9313
:10030000DF93612C52C0A62CB12C6501CC0CDD1CF6
:1003100046018FEF881A980AD401A859BF4FF601F9
:10032000E859FF4F40E06C9180810E949603712C48
:100330002DC0E72CF12CE701CC0FDD1F8E010F5FE4
:100340001F4FD801A05ABF4FFE01E05AFF4F6C91DA
:1003500080810E941B04811118C0F801E05AFF4FF0
:100360006081FE01E05AFF4F80810E941B048823B8
:10037000A1F3F701EE0FFF1FEE0FFF1FE954FF4F30
:10038000EA0DFB1D80818936A9F4739483E08715FB
:1003900080F6D401A859BF4FF601E859FF4F41E05C
:1003A0006C9180810E949603639483E0861508F027
:1003B000AACF8FEFDF91CF911F910F91FF90EF9018
:1003C000DF90CF90BF90AF909F908F907F906F9075
:1003D000089598B39E7F98BB98B39D7F98BBEFEC30
:1003E000F7E03197F1F700C0000098B3946098BB34
:1003F000EFECF7E03197F1F700C0000098B39F7081
:10040000282F207F922B98BBEFECF7E03197F1F784
:1004100000C0000098B39B7F98BBEFECF7E03197EA
:10042000F1F700C0000098B3946098BBEFECF7E0E0
:100430003197F1F700C0000028B3F0E18F9FC001B1
:100440001124922F9F70892B88BB8FEC97E0019726
:10045000F1F700C0000088B38B7F88BBEFECF7E0BA
:100460003197F1F700C00000089587B3876087BB1C
:1004700087B3806F87BB82E00E94E90188E20E9417
:10048000E90181E00E94E9018CE00E94E901089500
:1004900098B3916098BB98B39D7F98BBEFECF7E061
:1004A0003197F1F700C0000098B3946098BBEFEC6F
:1004B000F7E03197F1F700C0000098B39F70282F44
:1004C000207F922B98BBEFECF7E03197F1F700C05B
:1004D000000098B39B7F98BBEFECF7E03197F1F702
:1004E00000C0000098B3946098BBEFECF7E0319740
:1004F000F1F700C0000028B3F0E18F9FC001112484
:10050000922F9F70892B88BB8FEC97E00197F1F7B2
:1005100000C0000088B38B7F88BBEFECF7E0319719
:10052000F1F700C000000895CF93DF93EC0103C002
:100530000E944802219688818111FACFDF91CF91E4
:100540000895CF93DF93CDB7DEB760970FB6F894D9
:10055000DEBF0FBECDBF4AE050E0BE016F5F7F4FF0
:100560000E94EF06CE0101960E94940260960FB69B
:10057000F894DEBF0FBECDBFDF91CF9108958823E1
:1005800019F0813031F008958FE7860F0E94E9015C
:1005900008958FEB860F0E94E90108950E94F402EE
:1005A00008950E9403039C01A8E8B3E10E94C206DB
:1005B0009B01AC01012E1AE056954795379527957A
:1005C0001A95D1F7102DADECBCEC0E94C2069695A1
:1005D00087959695879596958795992708950E9472
:1005E00059000E94EC00FDCF87B18F7787B987B1A2
:1005F000806487B986B186B986B1806886B986B1CC
:10060000806486B9089597B1907F97B997B1892B87
:1006100087B986B1806486B93699FECF84B195B129
:100620000895413009F040C08130A1F028F08230B7
:10063000F9F0833059F10895683008F076C02AB394
:1006400081E090E002C0880F991F6A95E2F7822B43
:100650008ABB0895683008F068C027B381E090E055
:1006600002C0880F991F6A95E2F7822B87BB089515
:10067000683008F05AC024B381E090E002C0880FCF
:10068000991F6A95E2F7822B84BB0895683008F0C1
:100690004CC021B381E090E002C0880F991F6A9599
:1006A000E2F7822B81BB089541113FC08130A1F058
:1006B00028F08230F9F0833059F108956830A8F5B8
:1006C0002AB381E090E002C0880F991F6A95E2F793
:1006D000809582238ABB0895683038F527B381E07E
:1006E00090E002C0880F991F6A95E2F780958223F7
:1006F00087BB08956830C8F424B381E090E002C05D
:10070000880F991F6A95E2F78095822384BB08952C
:10071000683058F421B381E090E002C0880F991F3F
:100720006A95E2F78095822381BB0895413009F0F4
:1007300040C08130A1F028F08230F9F0833059F1C7
:100740000895683008F076C02BB381E090E002C0D5
:10075000880F991F6A95E2F7822B8BBB089568304A
:1007600008F068C028B381E090E002C0880F991FAC
:100770006A95E2F7822B88BB0895683008F05AC06A
:1007800025B381E090E002C0880F991F6A95E2F7D7
:10079000822B85BB0895683008F04CC022B381E0FD
:1007A00090E002C0880F991F6A95E2F7822B82BB06
:1007B000089541113FC08130A1F028F08230F9F056
:1007C000833059F108956830A8F52BB381E090E0AB
:1007D00002C0880F991F6A95E2F7809582238BBB30
:1007E0000895683038F528B381E090E002C0880FA2
:1007F000991F6A95E2F78095822388BB0895683037
:10080000C8F425B381E090E002C0880F991F6A9573
:10081000E2F78095822385BB0895683058F422B3AF
:1008200081E090E002C0880F991F6A95E2F78095F9
:10083000822382BB0895813079F028F08230A9F0BC
:100840008330E1F024C089B390E002C0959587958C
:100850006A95E2F78170089586B390E002C095959D
:1008600087956A95E2F78170089583B390E002C09E
:10087000959587956A95E2F78170089580B390E029
:1008800002C0959587956A95E2F78170089580E09A
:10089000089583B7806483BF83B7886083BF41E0D6
:1008A00063E081E00E94110383B7806283BF83B756
:1008B0008F7E83BF8EB58E7F8EBD8EB58D7F8EBDB4
:1008C0008EB58B7F8EBD089520E030E048EC52E479
:1008D0000E94260520E030E04FE753E40E945506D1
:1008E0000E9498056CBF089583B7826083BF089506
:1008F00083B7887F83BF08951F920F920FB60F9220
:1009000011242F933F934F935F936F937F938F9314
:100910009F93AF93BF93EF93FF93E091CA00F09141
:10092000CB00309709F00995FF91EF91BF91AF91FE
:100930009F918F917F916F915F914F913F912F91F7
:100940000F900FBE0F901F9018951F920F920FB629
:100950000F9211242F933F934F935F936F937F9345
:100960008F939F93AF93BF93EF93FF93E091CA0050
:10097000F091CB00309709F00995FF91EF91BF916D
:10098000AF919F918F917F916F915F914F913F9127
:100990002F910F900FBE0F901F9018951F920F92DE
:1009A0000FB60F9211242F933F934F935F936F9342
:1009B0007F938F939F93AF93BF93EF93FF93E091B8
:1009C000CA00F091CB000995FF91EF91BF91AF91D3
:1009D0009F918F917F916F915F914F913F912F9157
:1009E0000F900FBE0F901F9018951F920F920FB689
:1009F0000F9211242F933F934F935F936F937F93A5
:100A00008F939F93AF93BF93EF93FF93E091CA00AF
:100A1000F091CB00309709F00995FF91EF91BF91CC
:100A2000AF919F918F917F916F915F914F913F9186
:100A30002F910F900FBE0F901F901895E091CA0054
:100A4000F091CB00309709F0099508950E943A057E
:100A50000C941B060E94140658F00E940D0640F0EC
:100A600029F45F3F29F00C94040651110C944F06B1
:100A70000C940A060E942C0668F39923B1F35523BF
:100A800091F3951B550BBB27AA27621773078407A1
:100A900038F09F5F5F4F220F331F441FAA1FA9F337
:100AA00035D00E2E3AF0E0E832D091505040E69525
:100AB000001CCAF72BD0FE2F29D0660F771F881F86
:100AC000BB1F261737074807AB07B0E809F0BB0B79
:100AD000802DBF01FF2793585F4F3AF09E3F51058D
:100AE00078F00C9404060C944F065F3FE4F3983EB4
:100AF000D4F3869577956795B795F7959F5FC9F776
:100B0000880F911D9695879597F90895E1E0660FF6
:100B1000771F881FBB1F621773078407BA0720F06F
:100B2000621B730B840BBA0BEE1F88F7E0950895D8
:100B30000E94340688F09F5798F0B92F9927B75133
:100B4000B0F0E1F0660F771F881F991F1AF0BA9571
:100B5000C9F714C0B13091F00E944E06B1E008957B
:100B60000C944E06672F782F8827B85F39F0B93F6D
:100B7000CCF3869577956795B395D9F73EF4909524
:100B80008095709561957F4F8F4F9F4F0895E894A2
:100B900009C097FB3EF490958095709561957F4FC5
:100BA0008F4F9F4F9923A9F0F92F96E9BB27939573
:100BB000F695879577956795B795F111F8CFFAF483
:100BC000BB0F11F460FF1BC06F5F7F4F8F4F9F4FB4
:100BD00016C0882311F096E911C0772321F09EE812
:100BE000872F762F05C0662371F096E8862F70E078
:100BF00060E02AF09A95660F771F881FDAF7880F52
:100C00009695879597F9089597F99F6780E870E022
:100C100060E008959FEF80EC089500240A94161672
:100C2000170618060906089500240A9412161306DA
:100C3000140605060895092E0394000C11F4882368
:100C400052F0BB0F40F4BF2B11F460FF04C06F5F84
:100C50007F4F8F4F9F4F089557FD9058440F551F5A
:100C600059F05F3F71F04795880F97FB991F61F02E
:100C70009F3F79F087950895121613061406551FA5
:100C8000F2CF4695F1DF08C0161617061806991F11
:100C9000F1CF86957105610508940895E894BB2706
:100CA00066277727CB0197F908950E9468060C9470
:100CB0001B060E940D0638F00E94140620F09523B2
:100CC00011F00C9404060C940A0611240C944F069F
:100CD0000E942C0670F3959FC1F3950F50E0551FAD
:100CE000629FF001729FBB27F00DB11D639FAA2781
:100CF000F00DB11DAA1F649F6627B00DA11D661FD0
:100D0000829F2227B00DA11D621F739FB00DA11DF0
:100D1000621F839FA00D611D221F749F3327A00DAA
:100D2000611D231F849F600D211D822F762F6A2F46
:100D300011249F5750409AF0F1F088234AF0EE0FAB
:100D4000FF1FBB1F661F771F881F91505040A9F7D8
:100D50009E3F510580F00C9404060C944F065F3FB3
:100D6000E4F3983ED4F3869577956795B795F79514
:100D7000E7959F5FC1F7FE2B880F911D969587958C
:100D800097F90895A29FB001B39FC001A39F700D72
:100D9000811D1124911DB29F700D811D1124911D83
:100DA0000895FC0188279927E89421912032E9F3DE
:100DB000293010F02E30C8F32B3241F02D3239F4A7
:100DC000689404C00E940507820F911D2191205351
:100DD0002A30C0F31EF4909581959F4F08954532B7
:100DE000510520F4423010F00C94FA06FB011082F9
:100DF000CB010895BB274A3031F4992322F4BDE298
:100E0000909581959F4F0C940E077AE0979F902DB7
:100E1000879F802D910D11240895BB27FB01552735
:100E2000AA27880F991FAA1FA41710F0A41B839547
:100E30005051B9F7A05DAA3308F0A95DA1930097BE
:100E400079F7B111B1931192CB010C942707DC0112
:100E5000FC01672F71917723E1F7329704C07C91F1
:100E60006D9370836291AE17BF07C8F30895F8942D
:020E7000FFCFB2
:100E72000204020502060207020002010202020344
:100E8200504C656173652053657420546865005445
:100E9200656D70657261747572653A004375727240
:100EA200656E742074656D703A0046616E207475CB
:100EB200726E6564206F6E0046616E207475726E8C
:100EC2006564206F666600373839693435366931B2
:080ED20032336969303D69000B
:00000001FF
