:100000000C942A000C943F000C943F000C943F0089
:100010000C943F000C943F000C943F000C943F0064
:100020000C943F000C943F000C943F000C943F0054
:100030000C943F000C943F000C943F000C943F0044
:100040000C943F000C943F000C943F000C943F0034
:100050000C943F0011241FBECFE5D8E0DEBFCDBF1A
:1000600010E0A0E6B0E0E4E1F3E002C005900D92FC
:10007000A836B107D9F70E94BD000C9488010C94F2
:1000800000000E94DA0060E875E280E090E00E94E3
:100090000C010895683008F06FC0843008F06CC01F
:1000A000813001F130F08230B1F1833009F44CC07D
:1000B0000895413059F42AB381E090E002C0880FDE
:1000C000991F6A95E2F7822B8ABB08952AB381E0D3
:1000D00090E002C0880F991F6A95E2F7809582230D
:1000E0008ABB0895413059F427B381E090E002C003
:1000F000880F991F6A95E2F7822B87BB089527B373
:1001000081E090E002C0880F991F6A95E2F7809520
:10011000822387BB0895413059F424B381E090E0F5
:1001200002C0880F991F6A95E2F7822B84BB08955D
:1001300024B381E090E002C0880F991F6A95E2F72E
:100140008095822384BB0895413059F421B381E026
:1001500090E002C0880F991F6A95E2F7822B81BB5D
:10016000089521B381E090E002C0880F991F6A953D
:10017000E2F78095822381BB0895CF93DF93CDB7BB
:10018000DEB7CF5FD1090FB6F894DEBF0FBECDBF8B
:100190000E94410080E690E00E943801CE01019665
:1001A0000E944501CE0101960E94F9008DE00E9457
:1001B000F400F4CF41E064E081E00E944A0041E0B5
:1001C00065E081E00E944A0040E066E081E00E9434
:1001D0004A0041E067E081E00E944A0080E58DB975
:1001E0008EB18E7F8EB908958FB9779BFECF8FB178
:1001F00008950F931F93CF938C01C0E003C00E941A
:10020000F400CF5FF801EC0FF11D80818111F7CF71
:10021000CF911F910F9108952BB122602BB92AB174
:1002200028612AB920B5266820BDDC01CB01880FE2
:10023000991FAA1FBB1F880F991FAA1FBB1F9C01D4
:10024000AD01220F331F441F551F60E472E48FE09D
:1002500090E00E9466012150310930BD29B908950E
:100260005D9BFECF8CB908955F9BFECF8CB1089546
:10027000CF93DF93EC0103C00E9430012196888167
:100280008111FACFDF91CF910895EF92FF920F93F2
:100290001F93CF938C010E943401F8018083C0E04A
:1002A00008C0CF5F7801EC0EF11C0E943401F70109
:1002B0008083F801EC0FF11D80818D3091F7108261
:1002C000CF911F910F91FF90EF900895A1E21A2E08
:1002D000AA1BBB1BFD010DC0AA1FBB1FEE1FFF1FEA
:1002E000A217B307E407F50720F0A21BB30BE40B3A
:1002F000F50B661F771F881F991F1A9469F7609581
:100300007095809590959B01AC01BD01CF0108953A
:04031000F894FFCF8F
:080314004D41535445520D0008
:00000001FF
