:100000000C942A000C9434000C9434000C943400AA
:100010000C9434000C9434000C9434000C94340090
:100020000C9434000C9434000C9434000C94340080
:100030000C9434000C9434000C9434000C94340070
:100040000C9434000C9434000C9434000C94340060
:100050000C94340011241FBECFE5D8E0DEBFCDBF25
:100060000E94B2010C94DE030C94000041110DC0FB
:10007000FB01308181E090E002C0880F991F2A9532
:10008000E2F78095832380830895FB01308181E02E
:1000900090E002C0880F991F2A95E2F7832B808396
:1000A0000895FC01208141E050E002C0440F551F3B
:1000B0006A95E2F730E02423352381E042175307A5
:1000C00009F080E00895242F40E00E943600089552
:1000D0000E945100089597B3986097BB9DE693BF27
:1000E0008CBF0895CF92DF92EF920F93CF93DF935F
:1000F000EB01BA016901202F41E00E9436002E2D4C
:1001000041E0B601CE010E943600DF91CF910F9100
:10011000EF90DF90CF900895DC013C91E1E0F0E0BA
:10012000DF0102C0AA0FBB1F4A95E2F7AD01432BC6
:10013000DC014C93DB018C9102C0EE0FFF1F2A956E
:10014000E2F7E095E823EC930895DC013C91E1E0CF
:10015000F0E0CF0102C0880F991F4A95E2F7982F6F
:10016000909593239C93DB018C9102C0EE0FFF1FAF
:100170002A95E2F7E095E823EC930895DC013C91A1
:10018000E1E0F0E0CF0102C0880F991F4A95E2F745
:10019000982F909593239C93DB018C9102C0EE0FD6
:1001A000FF1F2A95E2F7E82BEC930895CF93C82F11
:1001B000682F70E080E090E00E94A20220E030E032
:1001C00048EC52E40E94010220E030E04FE753E4A3
:1001D0000E9471030E94EA010E947302C53618F45E
:1001E000862F0E946B00CF910895EF920F9343E00A
:1001F0006AE370E08BE390E00E94630040E06AE312
:1002000070E08BE390E00E94630041E06AE370E0FD
:100210008BE390E00E94630042E06AE370E08BE3CE
:1002200090E00E946300EE24E39400E024E330E0D9
:1002300044E350E065E370E085E390E00E947200E3
:100240000F2EF3E0EF2EF02D02E024E330E044E344
:1002500050E065E370E085E390E00E9472000F914A
:10026000EF90089521E040E065E370E085E390E0E1
:100270000E948C0023E042E065E370E085E390E0BB
:100280000E948C00089521E040E065E370E085E382
:1002900090E00E94BE0023E042E065E370E085E369
:1002A00090E00E94BE00089521E040E065E370E028
:1002B00085E390E00E94A50023E042E065E370E062
:1002C00085E390E00E94A500089521E040E065E309
:1002D00070E085E390E00E948C0023E042E065E35B
:1002E00070E085E390E00E94BE008EE10E94D6009F
:1002F000089523E042E065E370E085E390E00E942A
:100300008C0021E040E065E370E085E390E00E942E
:10031000BE008EE10E94D6000895CF93C82F83308F
:10032000A1F00E943201C11104C08EE10E94D600EA
:1003300011C0C13021F48CE30E94D6000BC0C23042
:1003400049F48AE50E94D60005C00E9443018EE16F
:100350000E94D600CF910895682F89E390E00E9413
:10036000680008950E94F500DFEF10E001C01C2F27
:1003700083E00E94AC01C82F181711F08111DF5FD4
:1003800081E00E94AC01882389F0DD237CF08D2F71
:100390000D2E000C990B83709078992324F401970B
:1003A0008C6F9F6F01960E948D01E1CFDD23FCF2DF
:1003B0000E94540180E00E94AC01882319F00E9441
:1003C0006501D5CF82E00E94AC01882381F20E94B2
:1003D0007901CDCF0E94520390F09F3748F49111DC
:1003E00016F40C946B0360E070E080E89FE30895DE
:1003F00026F01B16611D711D811D0C94E5020C94E5
:1004000000030E9415020C941F030E94180358F069
:100410000E94110340F029F45F3F29F00C94DF02A1
:1004200051110C946B030C940E030E94300368F37B
:100430009923B1F3552391F3951B550BBB27AA279D
:1004400062177307840738F09F5F5F4F220F331FD7
:10045000441FAA1FA9F335D00E2E3AF0E0E832D09F
:1004600091505040E695001CCAF72BD0FE2F29D0A2
:10047000660F771F881FBB1F261737074807AB0774
:10048000B0E809F0BB0B802DBF01FF2793585F4FE9
:100490003AF09E3F510578F00C94DF020C946B0308
:1004A0005F3FE4F3983ED4F3869577956795B795CB
:1004B000F7959F5FC9F7880F911D9695879597F9D6
:1004C0000895E1E0660F771F881FBB1F621773074F
:1004D0008407BA0720F0621B730B840BBA0BEE1F64
:1004E00088F7E09508950E94380388F09F5798F0A8
:1004F000B92F9927B751B0F0E1F0660F771F881F29
:10050000991F1AF0BA95C9F714C0B13091F00E9442
:100510006A03B1E008950C946A03672F782F882747
:10052000B85F39F0B93FCCF3869577956795B39569
:10053000D9F73EF490958095709561957F4F8F4FD8
:100540009F4F0895E89409C097FB3EF490958095DD
:10055000709561957F4F8F4F9F4F9923A9F0F92F89
:1005600096E9BB279395F695879577956795B79507
:10057000F111F8CFFAF4BB0F11F460FF1BC06F5FED
:100580007F4F8F4F9F4F16C0882311F096E911C0FF
:10059000772321F09EE8872F762F05C0662371F020
:1005A00096E8862F70E060E02AF09A95660F771F34
:1005B000881FDAF7880F9695879597F9089597F928
:1005C0009F6780E870E060E00895882371F47723E6
:1005D00021F09850872B762F07C0662311F49927B6
:1005E0000DC09051862B70E060E02AF09A95660F5E
:1005F000771F881FDAF7880F9695879597F90895E2
:100600009F3F31F0915020F4879577956795B79586
:10061000880F911D9695879597F908959FEF80EC27
:10062000089500240A941616170618060906089558
:1006300000240A9412161306140605060895092EBE
:100640000394000C11F4882352F0BB0F40F4BF2B2D
:1006500011F460FF04C06F5F7F4F8F4F9F4F08956D
:1006600057FD9058440F551F59F05F3F71F0479563
:10067000880F97FB991F61F09F3F79F08795089548
:10068000121613061406551FF2CF4695F1DF08C067
:10069000161617061806991FF1CF86957105610584
:1006A000089408950E943803A0F0BEE7B91788F4B3
:1006B000BB279F3860F41616B11D672F782F882747
:1006C000985FF7CF869577956795B11D9395963985
:1006D000C8F30895E894BB2766277727CB0197F9DD
:1006E00008950E9484030C941F030E94110338F0A4
:1006F0000E94180320F0952311F00C94DF020C9453
:100700000E0311240C946B030E94300370F3959F29
:10071000C1F3950F50E0551F629FF001729FBB27F8
:10072000F00DB11D639FAA27F00DB11DAA1F649F94
:100730006627B00DA11D661F829F2227B00DA11D47
:10074000621F739FB00DA11D621F839FA00D611DCD
:10075000221F749F3327A00D611D231F849F600DEE
:10076000211D822F762F6A2F11249F5750409AF017
:10077000F1F088234AF0EE0FFF1FBB1F661F771FA3
:10078000881F91505040A9F79E3F510580F00C946E
:10079000DF020C946B035F3FE4F3983ED4F386953D
:1007A00077956795B795F795E7959F5FC1F7FE2B0E
:1007B000880F911D9695879597F90895F894FFCF26
:00000001FF
