:100000000C942A000C9434000C9434000C943400AA
:100010000C9434000C9434000C9434000C94340090
:100020000C9434000C9434000C9434000C94340080
:100030000C9434000C9434000C9434000C94340070
:100040000C9434000C9434000C9434000C94340060
:100050000C94340011241FBECFE5D8E0DEBFCDBF25
:100060000E9436000C9450000C94000084B38F6002
:1000700084BB85B3816085BB85B38D7F85BB85B32C
:10008000886085BB85B38F7E85BB87B3886087BB5F
:1000900083B78D6683BF83B783BF88EC8CBFFFCFE8
:0400A000F894FFCF02
:00000001FF
