S01400005461736B20362055534152542E7372656378
S11300000C942A000C943F000C943F000C943F0085
S11300100C943F000C943F000C943F000C943F0060
S11300200C943F000C943F000C943F000C943F0050
S11300300C943F000C943F000C943F000C943F0040
S11300400C943F000C943F000C943F000C943F0030
S11300500C943F0011241FBECFE5D8E0DEBFCDBF16
S113006010E0A0E6B0E0E4E4F3E002C005900D92F5
S1130070A83CB107D9F70E949B000C94A0010C94F2
S1130080000040E06AE370E08BE390E00E9493009C
S113009041E06AE370E08BE390E00E94930042E069
S11300A06AE370E08BE390E00E94930060E875E2FD
S11300B080E090E00E941B01089541110DC0FB01F6
S11300C0308181E090E002C0880F991F2A95E2F701
S11300D08095832380830895FB01308181E090E043
S11300E002C0880F991F2A95E2F7832B8083089515
S11300F0442361F0FC01408121E030E002C0220F82
S1130100331F6A95E2F7242B20830895FC01408174
S113011021E030E002C0220F331F6A95E2F72095F8
S1130120242320830895242F41E00E945D00089534
S11301300E9478000895CF93DF93CDB7DEB7C456FD
S1130140D1090FB6F894DEBF0FBECDBF0E944100A7
S113015080E690E00E944701CE0101960E9454017E
S11301606CE770E0CE0101960E949701892BB9F4E7
S113017041E062E08BE390E00E94980040E061E09F
S11301808BE390E00E94980040E060E08BE390E015
S11301900E94980082E890E00E944701D9CF64E968
S11301A070E0CE0101960E949701892BB9F440E0DA
S11301B062E08BE390E00E94980041E061E08BE311
S11301C090E00E94980040E060E08BE390E00E94A1
S11301D0980089E990E00E944701BACF6CEA70E088
S11301E0CE0101960E949701892BB9F440E062E0A8
S11301F08BE390E00E94980040E061E08BE390E0A4
S11302000E94980041E060E08BE390E00E94980037
S113021081EB90E00E9447019BCF61EC70E0CE013E
S113022001960E949701892B09F092CF84EC90E00B
S11302300E9447018DCF2BB122602BB92AB12861CE
S11302402AB920B5266820BDDC01CB01880F991F8F
S1130250AA1FBB1F880F991FAA1FBB1F9C01AD01BA
S1130260220F331F441F551F60E472E48FE090E0B7
S11302700E9475012150310930BD29B908955D9B53
S1130280FECF8CB908955F9BFECF8CB10895CF93B8
S1130290DF93EC0103C00E943F0121968881811104
S11302A0FACFDF91CF910895EF92FF920F931F93AE
S11302B0CF938C010E944301F8018083C0E008C001
S11302C0CF5F7801EC0EF11C0E944301F70180839B
S11302D0F801EC0FF11D80818D3091F71082CF91E0
S11302E01F910F91FF90EF900895A1E21A2EAA1B7F
S11302F0BB1BFD010DC0AA1FBB1FEE1FFF1FA217D2
S1130300B307E407F50720F0A21BB30BE40BF50BCE
S1130310661F771F881F991F1A9469F76095709557
S1130320809590959B01AC01BD01CF010895FB011F
S1130330DC018D91019080190110D9F3990B089576
S1070340F894FFCF5B
S1130344506C6561736520456E74657220596F75D0
S11303547220436F6D6D616E64200D0053544152DD
S11303645400477265656E204C4544206973204FE0
S11303744E200D00574149540059656C6C6F772029
S11303844C4544206973204F4E200D0053544F5064
S113039400524544204C4544206973204F4E200D9F
S10B03A4004154004F4B0D0011
S9030000FC
