S01800005461736B2037205350495F534C4156452E737265633C
S11300000C942A000C943F000C943F000C943F0085
S11300100C943F000C943F000C943F000C943F0060
S11300200C943F000C943F000C943F000C943F0050
S11300300C943F000C943F000C943F000C943F0040
S11300400C943F000C943F000C943F000C943F0030
S11300500C943F0011241FBECFE5D8E0DEBFCDBF16
S113006010E0A0E6B0E0EAEEF2E002C005900D92E6
S1130070A836B107D9F70E94BD000C9473010C9403
S1130080000060E875E280E090E00E941C010E949C
S1130090DA000895683008F06FC0843008F06CC04E
S11300A0813001F130F08230B1F1833009F44CC079
S11300B00895413059F42AB381E090E002C0880FDA
S11300C0991F6A95E2F7822B8ABB08952AB381E0CF
S11300D090E002C0880F991F6A95E2F78095822309
S11300E08ABB0895413059F427B381E090E002C0FF
S11300F0880F991F6A95E2F7822B87BB089527B36F
S113010081E090E002C0880F991F6A95E2F780951C
S1130110822387BB0895413059F424B381E090E0F1
S113012002C0880F991F6A95E2F7822B84BB089559
S113013024B381E090E002C0880F991F6A95E2F72A
S11301408095822384BB0895413059F421B381E022
S113015090E002C0880F991F6A95E2F7822B81BB59
S1130160089521B381E090E002C0880F991F6A9539
S1130170E2F78095822381BB0895CF93DF93CDB7B7
S1130180DEB7CF5FD1090FB6F894DEBF0FBECDBF87
S11301900E94410080E690E00E944401CE01019655
S11301A00E94F900CE0101960E9444018DE00E9454
S11301B04001F4CF40E064E081E00E944A0040E066
S11301C065E081E00E944A0041E066E081E00E942F
S11301D04A0040E067E081E00E944A0080E48DB973
S11301E08EB18E7F8EB908958FB9779BFECF8FB174
S11301F00895EF92FF920F931F93CF938C018FEF8B
S11302000E94F400F8018083C0E009C0CF5F780148
S1130210EC0EF11C8FEF0E94F400F7018083F801CB
S1130220EC0FF11D80818D3089F71082CF911F91E1
S11302300F91FF90EF9008952BB122602BB92AB152
S113024028612AB920B5266820BDDC01CB01880FBE
S1130250991FAA1FBB1F880F991FAA1FBB1F9C01B0
S1130260AD01220F331F441F551F60E472E48FE079
S113027090E00E9451012150310930BD29B90895FF
S11302805D9BFECF8CB90895CF93DF93EC0103C03F
S11302900E944001219688818111FACFDF91CF918C
S11302A00895A1E21A2EAA1BBB1BFD010DC0AA1FB3
S11302B0BB1FEE1FFF1FA217B307E407F50720F0CB
S11302C0A21BB30BE40BF50B661F771F881F991F46
S11302D01A9469F760957095809590959B01AC018F
S10D02E0BD01CF010895F894FFCF8B
S10B02EA534C4156450D000080
S9030000FC
