S01F00005461736B32204C43445F4775657373696E672047616D652E737265630F
S11300000C942A000C9447000C9447000C9447006D
S11300100C9447000C9447000C9447000C94470040
S11300200C9447000C9477010C9447000C944700FF
S11300300C9447000C9447000C9447000C94470020
S11300400C9447000C9447000C9447000C94470010
S11300500C94470011241FBECFE5D8E0DEBFCDBF0E
S113006010E0A0E6B0E0EEE4FCE002C005900D92E2
S1130070A63BB107D9F720E0A6EBB0E001C01D9282
S1130080A93BB207E1F70E9448020C9425060C94A0
S1130090000041110DC0FB01308181E090E002C0FD
S11300A0880F991F2A95E2F780958323808308950A
S11300B0FB01308181E090E002C0880F991F2A95EE
S11300C0E2F7832B80830895FC01208141E050E016
S11300D002C0440F551F6A95E2F730E0242335230C
S11300E081E04217530709F080E00895442361F04A
S11300F0FC01408121E030E002C0220F331F6A95E9
S1130100E2F7242B20830895FC01408121E030E0B4
S113011002C0220F331F6A95E2F72095242320831F
S113012008950F931F93CF93DF93181619060CF0BD
S11301303FC08C01BC01990F880B990B0E94CF031F
S113014020E030E040E85BE30E949C040E949703B7
S1130150EB01B801707877232CF4615071097F6F3B
S11301606F5F7F4F072E000C880B990B0E94CF0303
S11301709B01AC0160E070E080E893E40E94A1027E
S11301800E94970385E083BF80E090E007C012BE21
S113019008B600FEFDCF21E028BF01968C179D070D
S11301A0B4F362BF08B600FEFDCF81E088BF13BE82
S11301B0DF91CF911F910F91089595B39E7F95BBC9
S11301C082BB85B3846085BB81E090E00E9491008E
S11301D085B38B7F85BB81E090E00E9491000895F8
S11301E0813039F4862F90E080589F4F0E94DD00C3
S11301F00895823031F4862F90E080549F4F0E94FE
S1130200DD00089580EF81BB87E084BB85B38E7FDA
S113021085BB85B38D7F85BB85B38B7F85BB88E329
S113022090E00E94DD008CE090E00E94DD0081E01F
S113023090E00E94DD0086E090E00E94DD000895D9
S113024095B3916095BB82BB85B3846085BB81E027
S113025090E00E94910085B38B7F85BB81E090E0A4
S11302600E94910008950F931F93CF93DF938C0105
S1130270C0E0D0E004C090E00E9420012196F80183
S1130280EC0FFD1F80818111F6CFDF91CF911F917B
S11302900F910895BC01990F880B990B0E94CF030D
S11302A02FE632E143E85FE30E9425039B01AC01A2
S11302B060E070E080E897E40E94A1020E940E03CF
S11302C00E9497037093B8006093B7007DBD6CBD26
S11302D01FBC85E08EBD84E089BF78940895242FE7
S11302E041E00E94490008950E94760008951F92FB
S11302F00F920FB60F9211242F933F934F935F9356
S11303006F937F938F939F93AF93BF93EF93FF93D9
S113031081E08093B60041E050E061E070E08BE35F
S113032090E00E947401F894FF91EF91BF91AF9116
S11303309F918F917F916F915F914F913F912F91F9
S11303400F900FBE0F901F901895242F40E00E942D
S1130350490008950E94640008950E94020142E049
S113036067E370E088E390E00E94A50140E06AE35F
S113037070E08BE390E00E946F0141E06AE370E07B
S11303808BE390E00E946F01089560E081E00E9499
S1130390F00084E690E00E94330160E082E00E9475
S11303A0F00081E790E00E9433010895CF93DF933A
S11303B0EC0181E090E00E94DD0064E081E00E94B5
S11303C0F0008DE790E00E94330160E082E00E943B
S11303D0F00085E890E00E943301CE010E943301D1
S11303E080ED97E00E94910081E090E00E94DD00A2
S11303F0DF91CF910895CF93DF93EC0181E090E0FA
S11304000E94DD0064E081E00E94F0008EE890E04C
S11304100E94330160E082E00E94F00085E890E0F1
S11304200E943301CE010E94330180ED97E00E94C7
S1130430910081E090E00E94DD00DF91CF9108956A
S113044081E090E00E94DD0060E081E00E94F00025
S113045087E990E00E94330160E082E00E94F000AE
S113046087EA90E00E94330180ED97E00E949100BA
S113047081E090E00E94DD00089590E00E948205F2
S11304800E947D056EE070E00E9409058F5F08956B
S1130490CF93DF9300D0CDB7DEB70E94AD0100E06B
S11304A010E0F12C0E94C5018091B600882321F14F
S11304B0802F0E943D02E82E4AE0BE016F5F7F4F0D
S11304C090E00E948D0581E090E00E94DD008FE0C5
S11304D08F1518F40E9420020BC0FE1005C0CE0137
S11304E001960E94D60104C0CE0101960E94FB0130
S11304F01092B600F12C0CC040E060E08BE390E079
S11305000E94740140E061E08BE390E00E9474017A
S113051062E086E390E00E94AA01882379F080EDEE
S113052097E00E944A0141E060E08BE390E00E9482
S1130530740182E390E00E949100F3940F5F1F4FD7
S1130540B1CF5058BB27AA270E94B9020C944A0481
S11305500E943C0438F00E94430420F039F49F3F89
S113056019F426F40C9439040EF4E095E7FB0C948A
S11305700A04E92F0E945B0458F3BA176207730751
S11305808407950720F079F4A6F50C9495040EF4ED
S1130590E0950B2EBA2FA02D0B01B90190010C018F
S11305A0CA01A0011124FF27591B99F0593F50F4A7
S11305B0503E68F11A16F040A22F232F342F4427FF
S11305C0585FF3CF469537952795A795F0405395F7
S11305D0C9F77EF41F16BA0B620B730B840BBAF0C7
S11305E09150A1F0FF0FBB1F661F771F881FC2F732
S11305F00EC0BA0F621F731F841F48F48795779546
S11306006795B795F7959E3F08F0B0CF9395880FFF
S113061008F09927EE0F9795879508950E947D0419
S113062090F09F3748F4911116F40C94960460E00E
S113063070E080E89FE3089526F01B16611D711D8C
S1130640811D0C9410040C942B040E9439030C9407
S11306504A040E94430458F00E943C0440F029F4E8
S11306605F3F29F00C940A0451110C9496040C94E5
S113067039040E945B0468F39923B1F3552391F381
S1130680951B550BBB27AA2762177307840738F0FD
S11306909F5F5F4F220F331F441FAA1FA9F335D05A
S11306A00E2E3AF0E0E832D091505040E695001C0E
S11306B0CAF72BD0FE2F29D0660F771F881FBB1FC8
S11306C0261737074807AB07B0E809F0BB0B802DA6
S11306D0BF01FF2793585F4F3AF09E3F510578F0D2
S11306E00C940A040C9496045F3FE4F3983ED4F30C
S11306F0869577956795B795F7959F5FC9F7880FA6
S1130700911D9695879597F90895E1E0660F771FF7
S1130710881FBB1F621773078407BA0720F0621B88
S1130720730B840BBA0BEE1F88F7E09508950E94B3
S11307309E036894B1110C94960408950E94630476
S113074088F09F5798F0B92F9927B751B0F0E1F08E
S1130750660F771F881F991F1AF0BA95C9F714C03E
S1130760B13091F00E949504B1E008950C94950481
S1130770672F782F8827B85F39F0B93FCCF3869577
S113078077956795B395D9F73EF4909580957095D4
S113079061957F4F8F4F9F4F0895E89409C097FB51
S11307A03EF490958095709561957F4F8F4F9F4F44
S11307B09923A9F0F92F96E9BB279395F695879588
S11307C077956795B795F111F8CFFAF4BB0F11F44B
S11307D060FF1BC06F5F7F4F8F4F9F4F16C08823F2
S11307E011F096E911C0772321F09EE8872F762F28
S11307F005C0662371F096E8862F70E060E02AF069
S11308009A95660F771F881FDAF7880F9695879554
S113081097F9089597F99F6780E870E060E008957C
S1130820882371F4772321F09850872B762F07C003
S1130830662311F499270DC09051862B70E060E077
S11308402AF09A95660F771F881FDAF7880F969516
S1130850879597F908959F3F31F0915020F487953B
S113086077956795B795880F911D9695879597F914
S113087008959FEF80EC089500240A941616170635
S113088018060906089500240A941216130614067D
S113089005060895092E0394000C11F4882352F0E0
S11308A0BB0F40F4BF2B11F460FF04C06F5F7F4F98
S11308B08F4F9F4F089557FD9058440F551F59F07F
S11308C05F3F71F04795880F97FB991F61F09F3F39
S11308D079F087950895121613061406551FF2CF62
S11308E04695F1DF08C0161617061806991FF1CFB2
S11308F0869571056105089408950E946304A0F02B
S1130900BEE7B91788F4BB279F3860F41616B11DEB
S1130910672F782F8827985FF7CF86957795679507
S1130920B11D93959639C8F30895E894BB276627BB
S11309307727CB0197F908950E94AF040C944A04D9
S11309400E943C0438F00E94430420F0952311F0E7
S11309500C940A040C94390411240C9496040E94F7
S11309605B0470F3959FC1F3950F50E0551F629F90
S1130970F001729FBB27F00DB11D639FAA27F00DF4
S1130980B11DAA1F649F6627B00DA11D661F829F1B
S11309902227B00DA11D621F739FB00DA11D621F00
S11309A0839FA00D611D221F749F3327A00D611D1D
S11309B0231F849F600D211D822F762F6A2F1124FF
S11309C09F5750409AF0F1F088234AF0EE0FFF1F32
S11309D0BB1F661F771F881F91505040A9F79E3F89
S11309E0510580F00C940A040C9496045F3FE4F3E0
S11309F0983ED4F3869577956795B795F795E795DF
S1130A009F5FC1F7FE2B880F911D9695879597F9E7
S1130A10089597FB072E16F4009407D077FD09D0AC
S1130A200E941D0507FC05D03EF4909581959F4FCB
S1130A300895709561957F4F0895AA1BBB1B51E1E2
S1130A4007C0AA1FBB1FA617B70710F0A61BB70B3A
S1130A50881F991F5A95A9F780959095BC01CD01DF
S1130A6008958F929F92AF92BF92CF92DF92EF92AE
S1130A70FF92CF93DF93EC01688179818A819B8116
S1130A80611571058105910521F464E279ED8BE529
S1130A9097E02DE133EF41E050E00E94C2054901A7
S1130AA05A019B01AC01A7EAB1E40E94E1056B0184
S1130AB07C01ACEEB4EFA50194010E94EF05DC01CA
S1130AC0CB018C0D9D1DAE1DBF1DB7FF03C001974B
S1130AD0A109B04888839983AA83BB839F77DF9158
S1130AE0CF91FF90EF90DF90CF90BF90AF909F9009
S1130AF08F9008950E943105089580E690E00E9449
S1130B0031050895A0E0B0E0809360009093610007
S1130B10A0936200B09363000895BB274A3031F478
S1130B20992322F4BDE2909581959F4F0C949905E9
S1130B30BB27FB015527AA27880F991FAA1FA417B3
S1130B4010F0A41B83955051B9F7A05DAA3308F0A7
S1130B50A95DA193009779F7B111B1931192CB01DB
S1130B600C94B205DC01FC01672F71917723E1F746
S1130B70329704C07C916D9370836291AE17BF0766
S1130B80C8F30895052E97FB1EF400940E94D9051E
S1130B9057FD07D00E94F40507FC03D04EF40C94D3
S1130BA0D90550954095309521953F4F4F4F5F4F54
S1130BB0089590958095709561957F4F8F4F9F4FC5
S1130BC008950E941606A59F900DB49F900DA49FB2
S1130BD0800D911D11240895B7FF0C94E1050E9426
S1130BE0E105821B930B0895A1E21A2EAA1BBB1BDD
S1130BF0FD010DC0AA1FBB1FEE1FFF1FA217B307E5
S1130C00E407F50720F0A21BB30BE40BF50B661FFA
S1130C10771F881F991F1A9469F7609570958095BE
S1130C2090959B01AC01BD01CF010895A29FB00135
S1130C30B39FC001A39F700D811D1124911DB29F0C
S1110C40700D811D1124911D0895F894FFCFAD
S1130C4E01000000506C6561736520477565737310
S1130C5E00616E20496E74656765723A00594F558E
S1130C6E20574F4E00697420776173203A00594F14
S1130C7E55204C4F5354005468652056616C69647A
S1130C8E2052616E67650066726F6D2031202D3EB5
S1090C9E2031353A00008C
S9030000FC
