:100000000C942A000C943C000C943C000C943C0092
:100010000C943C000C943C000C943C000C943C0070
:100020000C943C000C9456000C943C000C943C0046
:100030000C943C000C943C000C943C000C943C0050
:100040000C943C000C943C000C943C000C943C0040
:100050000C943C0011241FBECFE5D8E0DEBFCDBF1D
:1000600020E0A0E6B0E001C01D92A236B207E1F7A1
:100070000E944F000C94A9020C940000FC016083C4
:100080000895FC01808190E00895FC01608308954B
:1000900061E070E08AE390E00E943E0008950E94D3
:1000A000480088EE93E00E948900FFCF1F920F92D4
:1000B0000FB60F9211242F933F934F935F936F933B
:1000C0007F938F939F93AF93BF93EF93FF938BE3B4
:1000D00090E00E944100BC0121E062278BE390E0A8
:1000E0000E94450080916000909161009DBD8CBD93
:1000F000FF91EF91BF91AF919F918F917F916F9100
:100100005F914F913F912F910F900FBE0F901F90D5
:100110001895BC01990F880B990B0E94DC012FE602
:1001200032E143E85FE30E9432019B01AC0160E0F1
:1001300070E080E897E40E94AE000E941B010E94DC
:10014000A40170936100609360007DBD6CBD1FBC15
:1001500085E08EBD84E089BF789408955058BB2710
:10016000AA270E94C6000C9457020E94490238F048
:100170000E94500220F039F49F3F19F426F40C94A9
:1001800046020EF4E095E7FB0C941702E92F0E945B
:10019000680258F3BA17620773078407950720F0BF
:1001A00079F4A6F50C94A2020EF4E0950B2EBA2F6A
:1001B000A02D0B01B90190010C01CA01A00111246D
:1001C000FF27591B99F0593F50F4503E68F11A1619
:1001D000F040A22F232F342F4427585FF3CF4695AA
:1001E00037952795A795F0405395C9F77EF41F16CC
:1001F000BA0B620B730B840BBAF09150A1F0FF0F96
:10020000BB1F661F771F881FC2F70EC0BA0F621F81
:10021000731F841F48F4879577956795B795F79571
:100220009E3F08F0B0CF9395880F08F09927EE0F06
:100230009795879508950E948A0290F09F3748F419
:10024000911116F40C94A30260E070E080E89FE343
:10025000089526F01B16611D711D811D0C941D0251
:100260000C9438020E9446010C9457020E945002DE
:1002700058F00E94490240F029F45F3F29F00C94A5
:10028000170251110C94A3020C9446020E946802BA
:1002900068F39923B1F3552391F3951B550BBB27B5
:1002A000AA2762177307840738F09F5F5F4F220FFA
:1002B000331F441FAA1FA9F335D00E2E3AF0E0E8F1
:1002C00032D091505040E695001CCAF72BD0FE2F3B
:1002D00029D0660F771F881FBB1F261737074807CF
:1002E000AB07B0E809F0BB0B802DBF01FF27935887
:1002F0005F4F3AF09E3F510578F00C9417020C9432
:10030000A3025F3FE4F3983ED4F386957795679513
:10031000B795F7959F5FC9F7880F911D96958795BB
:1003200097F90895E1E0660F771F881FBB1F6217DA
:1003300073078407BA0720F0621B730B840BBA0B98
:10034000EE1F88F7E09508950E94AB016894B11103
:100350000C94A30208950E94700288F09F5798F0B1
:10036000B92F9927B751B0F0E1F0660F771F881FBA
:10037000991F1AF0BA95C9F714C0B13091F00E94D4
:10038000A202B1E008950C94A202672F782F88276B
:10039000B85F39F0B93FCCF3869577956795B395FB
:1003A000D9F73EF490958095709561957F4F8F4F6A
:1003B0009F4F0895E89409C097FB3EF4909580956F
:1003C000709561957F4F8F4F9F4F9923A9F0F92F1B
:1003D00096E9BB279395F695879577956795B79599
:1003E000F111F8CFFAF4BB0F11F460FF1BC06F5F7F
:1003F0007F4F8F4F9F4F16C0882311F096E911C091
:10040000772321F09EE8872F762F05C0662371F0B1
:1004100096E8862F70E060E02AF09A95660F771FC5
:10042000881FDAF7880F9695879597F9089597F9B9
:100430009F6780E870E060E00895882371F4772377
:1004400021F09850872B762F07C0662311F4992747
:100450000DC09051862B70E060E02AF09A95660FEF
:10046000771F881FDAF7880F9695879597F9089573
:100470009F3F31F0915020F4879577956795B79518
:10048000880F911D9695879597F908959FEF80ECB9
:10049000089500240A9416161706180609060895EA
:1004A00000240A9412161306140605060895092E50
:1004B0000394000C11F4882352F0BB0F40F4BF2BBF
:1004C00011F460FF04C06F5F7F4F8F4F9F4F0895FF
:1004D00057FD9058440F551F59F05F3F71F04795F5
:1004E000880F97FB991F61F09F3F79F087950895DA
:1004F000121613061406551FF2CF4695F1DF08C0F9
:10050000161617061806991FF1CF86957105610515
:10051000089408950E947002A0F0BEE7B91788F40D
:10052000BB279F3860F41616B11D672F782F8827D8
:10053000985FF7CF869577956795B11D9395963916
:10054000C8F30895E894BB2766277727CB0197F96E
:060550000895F894FFCFAE
:00000001FF
